:020000040800F2
:100000003008002045010008ED0F0008EF0F000840
:10001000F30F0008F70F0008FB0F000800000000B6
:10002000000000000000000000000000FF0F0008BA
:10003000011000080000000003100008051000086F
:100040005F0100085F0100085F0100085F01000810
:100050005F0100085F0100085F0100085F01000800
:100060005F0100085F0100085F0100085F010008F0
:100070005F0100085F0100085F0100085F010008E0
:100080005F0100085F0100085F0100085F010008D0
:100090005F0100085F0100085F0100085F010008C0
:1000A0005F0100085F0100085F0100085F010008B0
:1000B0005F0100085F0100085F0100085F010008A0
:1000C0005F0100085F0100085F0100085F01000890
:1000D0005F0100085F0100085F0100085F01000880
:1000E0005F0100085F0100085F0100085F01000870
:1000F0005F0100085F0100085F0100085F01000860
:100100005F0100085F0100085F0100085F0100084F
:100110005F0100085F0100085F0100085F0100083F
:100120005F0100085F0100085F0100085F0100082F
:10013000DFF80CD001F0CEF800480047A90F000806
:10014000300800200648804706480047FEE7FEE7E3
:10015000FEE7FEE7FEE7FEE7FEE7FEE7FEE7FEE777
:1001600047020008310100080CB500200190009002
:100170006C48006840F480306A49086000BF6948F4
:10018000006800F4003000900198401C0190009835
:1001900018B90198B0F5A06FF1D16248006800F479
:1001A000003010B10120009001E000200090009884
:1001B000012843D15C48006840F010005A490860AB
:1001C0000846006820F0030008600846006840F018
:1001D0000200086053484068524948600846406839
:1001E00048600846406840F48060486008464068BF
:1001F00020F47C1048600846406840F4E8104860ED
:100200000846006840F08070086000BF45480068FC
:1002100000F000700028F9D04248406820F0030048
:10022000404948600846406840F00200486000BF0E
:100230003C48406800F00C000828F9D10CBD10B50E
:10024000FFF792FF10BD10B53648006840F001007E
:1002500034490860084640683449084031494860DC
:1002600008460068324908402E4908600846006880
:1002700020F4802008600846406820F4FE004860B2
:100280004FF41F008860FFF7DAFF4FF00060294944
:10029000086010BD10B5002100200022214B5B68D2
:1002A00003F00C0121B1042906D0082928D107E068
:1002B000214B224C236027E01F4B204C236023E07E
:1002C000184B5B6803F47010164B5B6803F48032C4
:1002D000022303EB904022B9194B4343174C236090
:1002E0000DE0104B5B6803F4003323B1144B434320
:1002F000124C236003E0104B4343104C236003E097
:100300000D4B0E4C236000BF00BF064B5B68C3F370
:1003100003130C4CE15C094B1B68CB40074C23607A
:1003200010BD000000100240002002400000FFF855
:10033000FFFFF6FE08ED00E000127A00000000204A
:1003400000093D000400002001684FF6FE721140D4
:1003500001600021016041608160C1608D49884277
:1003600008D18C490839496841F00F01894A083A97
:1003700051608AE087491431884208D1854908399B
:10038000496841F0F001834A083A51607DE08149B3
:100390002831884208D17F490839496841F47061A1
:1003A0007C4A083A516070E07A493C31884208D171
:1003B00078490839496841F47041764A083A5160F1
:1003C00063E074495031884208D17249083949685C
:1003D00041F470216F4A083A516056E06D4964312A
:1003E000884208D16B490839496841F47001694A6B
:1003F000083A516049E067497831884208D1654937
:100400000839496841F07061624A083A51603CE03D
:100410006149884206D1011F096841F00F01021F9E
:10042000116032E05C491431884208D15A49091FF1
:10043000096841F0F001584A121F116025E0564941
:100440002831884208D15449091F096841F4706174
:10045000514A121F116018E04F493C31884208D1BF
:100460004D49091F096841F470414B4A121F116040
:100470000BE049495031884207D14749091F0968B3
:1004800041F47021444A121F1160704710B50022D8
:10049000026847F6F0739A430C6A8B6823430C6931
:1004A00023434C6923438C692343CC6923434C6A1F
:1004B00023438C6A23431A430260CB6843600B6872
:1004C00083604B68C36010BD0021016041608160A2
:1004D000C160016141618161C1610162416281620A
:1004E000704721B1026842F00102026004E0026834
:1004F0004FF6FE731A40026070471AB103680B434F
:10050000036002E003688B430360704741607047FB
:100510000146486880B2704701460020002201F081
:1005200080531BB11C4B083B1A6802E0194B083B77
:100530001A6802EA01030BB1012000E000207047B5
:1005400000F0805119B11449091F086002E01149F7
:1005500008394860704701460020002201F08053AE
:100560001BB10D4B083B1A6802E00A4B083B1A68A6
:1005700002EA01030BB1012000E00020704700F007
:10058000805119B10449091F086002E00149083986
:1005900048607047080002400804024010B5044655
:1005A000CC48844208D10121042000F02DFB002119
:1005B000042000F029FB46E0C748844208D101210D
:1005C000082000F021FB0021082000F01DFB3AE08C
:1005D000C248844208D10121102000F015FB0021FF
:1005E000102000F011FB2EE0BD48844208D101210B
:1005F000202000F009FB0021202000F005FB22E074
:10060000B848844208D10121402000F0FDFA0021C1
:10061000402000F0F9FA16E0B348844208D10121E5
:10062000802000F0F1FA0021802000F0EDFA0AE0CD
:10063000AE48844207D10121801500F0E5FA00217F
:10064000A01500F0E1FA10BD10B50121084600F038
:10065000DBFA0021012000F0D7FA10BD2DE9F041AE
:10066000024600250026002000230024002791F8E0
:1006700003C00CF00F0591F803C00CF0100CBCF196
:10068000000F03D091F802C04CEA050591F800C0B4
:10069000BCF1000F31D0146800202BE04FF0010CAA
:1006A0000CFA00F3B1F800C00CEA03069E4220D118
:1006B00083004FF00F0C0CFA03F7BC4305FA03FC60
:1006C0004CEA040491F803C0BCF1280F06D14FF0A6
:1006D000010C0CFA00FCC2F814C00AE091F803C047
:1006E000BCF1480F05D14FF0010C0CFA00FCC2F828
:1006F00010C0401C0828D1D31460B1F800C0BCF170
:10070000FF0F34DD546800202EE000F1080C4FF09C
:10071000010808FA0CF3B1F800C00CEA03069E4287
:1007200021D183004FF00F0C0CFA03F7BC4305FAFC
:1007300003FC4CEA040491F803C0BCF1280F05D176
:1007400000F1080C08FA0CF8C2F8148091F803C004
:10075000BCF1480F07D100F1080C4FF0010808FA6E
:100760000CF8C2F81080401C0828CED35460BDE8B5
:10077000F0814FF6FF710180022181700421C17068
:1007800070470246002093680B400BB1012000E047
:10079000002070470146886880B2704702460020FA
:1007A000D3680B400BB1012000E0002070470146E8
:1007B000C86880B2704701617047416170470AB1F3
:1007C000016100E041617047C16070474FF48032C1
:1007D0000A4382618161826182698269704702464F
:1007E0000020434B18684FF68073184040EA02100F
:1007F00008433F4B186070473E49C8617047F0B5E9
:100800000A46002300240021002500F00046B6F12E
:10081000004F02D1364EF16901E0354E7168C0F3E8
:10082000034583B200F44016B6F5401F08D121F00D
:1008300070612F4E766826F070662D4F7E6012E054
:1008400000F48016B6F5801F06D1032606FA05F4DB
:10085000A14341F0706106E0460D360103FA06F649
:10086000B14341F0706122B1460D360103FA06F63C
:10087000314300F00046B6F1004F02D11C4EF16149
:1008800001E01B4E7160F0BD30B500228B071C0FDC
:100890000F2303FA04F2164B08338C1053F824305C
:1008A0009343134C08348D1044F8253023468C10A4
:1008B00053F824308C07240F00FA04F423430C4C23
:1008C00008348D1044F8253030BD0A49DC31086009
:1008D0007047000000080140000C0140001001407A
:1008E0000014014000180140001C0140002001409C
:1008F0000000014000002042DF48006840F0010095
:10090000DD49086008464068DC490840DA4948602B
:1009100008460068DA490840D74908600846006878
:1009200020F4802008600846406820F4FE004860FB
:100930004FF41F0088607047CF49096821F4803167
:10094000CD4A11601146096821F480211160B0F58B
:10095000803F03D0B0F5802F0ED106E0C64909686C
:1009600041F48031C44A116007E0C349096841F489
:10097000A021C14A116000E000BF00BF704710B560
:1009800001460022002300204A11012A02D1BA4C5C
:10099000236806E0022A02D1B74C236A01E0B64C74
:1009A000636A01F01F02012494401C400CB1012035
:1009B00000E0002010BD38B5002000900024002584
:1009C00000BF3120FFF7DBFF05460098401C009078
:1009D0000098B0F5A06F01D0002DF2D03120FFF7C4
:1009E000CEFF08B1012400E00024204638BD0146B6
:1009F0000020A14A106820F0F80040EAC100106011
:100A00007047A04908607047024600209A4B58681A
:100A100020F47C1042EA01031843974B586070475A
:100A200098490866704701460020934A506820F0B4
:100A300003000843506070478F48406800F00C0086
:100A40007047014600208C4A506820F0F0000843AF
:100A50005060704701460020874A506820F4E060EB
:100A600008435060704701460020834A506820F4D4
:100A7000605040EAC1005060704729B17E4A527A06
:100A800002437D4B5A7204E07B4A527A82437A4B8E
:100A90005A7270477B49D831086070470146002080
:100AA000754A506820F44040084350607047002168
:100AB000714A20321170704A82F82010012802D049
:100AC00004280AD104E001216B4A2032117005E0AC
:100AD0000521694A2032117000E000BF00BF704755
:100AE0006949086070476449096A0143624A1162B2
:100AF0007047654944390860704730B500210022CD
:100B0000002400235C4D6D6805F00C0121B104291F
:100B100005D0082923D105E05C4D056022E05B4D3E
:100B200005601FE0544D6D6805F47012524D6D68FC
:100B300005F48034022505EB92421CB9544D55430F
:100B400005600BE04C4D6D6805F400351DB1504D4E
:100B50005543056002E04D4D5543056002E04B4DA5
:100B6000056000BF00BF444D6D6805F0F001090944
:100B7000484D6B5C0568DD4045603F4D6D6805F490
:100B8000E061090A434D6B5C4568DD4085603A4D84
:100B90006D6805F46051C90A3E4D6B5C4568DD40E7
:100BA000C560354D6D6805F44041890B3A4D6B5C6D
:100BB000C568B5FBF3F5056130BD29B12E4A526910
:100BC00002432D4B5A6104E02B4A526982432A4B5F
:100BD0005A61704729B1284A92690243264B9A61AB
:100BE00004E0254A92698243234B9A61704729B1F8
:100BF000214AD2690243204BDA6104E01E4AD269DD
:100C000082431D4BDA61704729B11B4AD268024307
:100C1000194BDA6004E0184AD2688243164BDA6056
:100C2000704729B1144A12690243134B1A6104E058
:100C3000114A12698243104B1A61704712494039B8
:100C4000086070470F49C86470470B49C871704706
:100C50000948406A40F08070074948627047014681
:100C60000020054A92680A400AB1012000E00020F5
:100C70007047014988727047001002400000FFF879
:100C8000FFFFF6FE000042428004424200127A005A
:100C900000093D00140000202400002010B5044687
:100CA000BE48844208D101218014FFF7ADFF002126
:100CB000A014FFF7A9FF16E0B948844208D101212A
:100CC0000014FFF7AEFF00212014FFF7AAFF0AE08F
:100CD000B448844207D10121C013FFF7A2FF0021CD
:100CE000E013FFF79EFF10BD10B50022028802F44A
:100CF00041520B884C8823438C882343CC88234360
:100D00000C8923434C8923438C892343CC89234377
:100D10001A430280838B4FF2FF74234083830B8A34
:100D2000038210BD2DE9F04F85B005460C464FF00B
:100D3000000902274FF000084FF0010B0026B246D1
:100D4000A88B4FF240010840A88302202884B5F800
:100D50001C90A068022801D100BF38E0A08810B91B
:100D60004FF0010B01E04FF0020B8D48854200D19E
:100D700000E000BF6846FFF7C0FEDDF800A0E08895
:100D8000B0F5007F0AD14FEA1A2000EB8000400046
:100D9000A168B0FBF1F0401D86B20BE04FEA4B10AA
:100DA000BAFBF0F000EB80004000A168B0FBF1F06E
:100DB000401D86B20A20B6FBF0F606F00108A6EB4D
:100DC0000800C0F34F074FF6FF7000EA0828022F13
:100DD00001DBFF2F02DD02274FF00008E08840EA28
:100DE000080038432884A088A18908436188084303
:100DF0002188084340F4006040EA0909A5F81C90E6
:100E000005B0BDE8F08F0021018041808180C18064
:100E1000018141818181C1810721018270470021C7
:100E2000018041808180C180022181600021818117
:100E3000704721B1028842F04002028004E002883B
:100E40004FF6BF731A400280704721B1828B42F483
:100E50008062828304E0828B4FF6FF331A408283E4
:100E6000704730B5002400230C110125A540ABB21A
:100E70001AB185881D43858002E085889D43858061
:100E800030BD1AB183880B43838002E083888B4393
:100E900083807047818170470146888970474FF68B
:100EA000FF62914204D0028842F48072028004E022
:100EB00002884FF6FF631A400280704721B1828892
:100EC00042F00402828004E082884FF6FB731A40ED
:100ED0008280704702884FF2FF731A4002800288B6
:100EE0000A4302807047018841F4805101807047B5
:100EF00021B1028842F40052028004E002884DF6DB
:100F0000FF731A400280704702460020012901D079
:100F1000108B00E0908A70470146088A7047B1F54F
:100F2000804F04D1028842F48042028004E00288AB
:100F30004BF6FF731A400280704702460020138967
:100F40000B400BB1012000E000207047CA43028132
:100F50007047F0B50246002000240023002501F070
:100F60000F070126BE40B4B20B1101269E40B3B25A
:100F7000968806EA03051689264016B10DB10120B0
:100F800000E00020F0BD10B5002201F00F040123A5
:100F9000A3409AB2D343038110BD0000003001404A
:100FA00000380040003C004000BF00200D49088090
:100FB0000AE00C4800780C490A4A1288885409480B
:100FC0000088401C0749088006480088FF28F0DB9D
:100FD00000F01AF804E00022FF21034800F0BCF8FA
:100FE000F9E700002800002030000020704700BF13
:100FF000FEE700BFFEE700BFFEE700BFFEE7704769
:10100000704770477047000000B591B0012124205F
:10101000FFF7E0FD01210803FFF7DCFD2020ADF81C
:101020002C0003208DF82E0018208DF82F000BA91E
:101030009948FFF713FB4020ADF82C000BA9964808
:10104000FFF70CFB8020ADF82C000BA99248FFF7AE
:1010500005FB1020ADF82C008DF82F000BA98E4851
:10106000FFF7FCFA8D48FFF76FF901210846FFF7FB
:10107000A4FD8B4800908B48019010200290012025
:101080000390002004908020059000200690079097
:1010900008904FF48050099000200A9069467F48DC
:1010A000FFF7F4F901217D48FFF71BFA7B4814385C
:1010B000FFF74AF901210846FFF77FFD78480090C5
:1010C0007948019000200290FF20039000200490B6
:1010D0008020059000200690079008904FF48050E3
:1010E000099000200A9069466C481438FFF7CEF941
:1010F0000020ADF830004FF48270ADF832000020CF
:10110000ADF834000220ADF836000120ADF838000B
:101110004002ADF83A003820ADF83C000020ADF8B0
:101120003E000720ADF840000CA95D480C38FFF7E1
:10113000DBFD012202215A480C38FFF7A2FE0122F2
:10114000114657480C38FFF79CFE012154480C38D3
:10115000FFF76FFE11B000BD70B506460C46154690
:101160004FF40070FFF7D8F998B34FF40070FFF711
:10117000E7F9FF2C25DC2DB9002148481438FFF78A
:10118000B0F90BE0214645481438FFF7BFF90121BB
:1011900042481438FFF7A5F94448048022463146F6
:1011A000404800F085F800213C48FFF79AF92146B5
:1011B0003A48FFF7ABF901213848FFF792F90120CF
:1011C00070BD25B1012135481438FFF78AF9FF2099
:1011D000F6E7FFE70020F3E770B505460C462F4819
:1011E0003038C06900F0010080B32020FFF794F987
:1011F00001281DD120782D490988884209DD2B4816
:1012000002882949284600F053F8284800782070C1
:1012100004E022782449284600F04AF82020FFF70D
:101220008FF900211D481438FFF75BF9012070BDCC
:101230001A481438FFF76CF91C4909880E1A32460F
:101240001949284600F034F80020F0E7FFE70020B5
:101250002070FF20EBE710B5044610483038C06915
:1012600000F0010098B12020FFF756F9012804D1C1
:101270000E4800782070012010BD08481438FFF790
:1012800047F90A490978081A20700020F4E700207D
:101290002070FF20F0E7000000080140300002400D
:1012A0000C3001402E0200202D0300202C000020D5
:1012B00040EA01039B0703D009E008C9121F08C0D8
:1012C000042AFAD203E011F8013B00F8013B521E58
:1012D000F9D27047064C074D06E0E06840F0010384
:1012E00094E8070098471034AC42F6D3FEF724FF89
:1012F000181300083813000802E008C8121F08C1BC
:10130000002AFAD170477047002001E001C1121F86
:10131000002AFBD1704700003813000800000020AD
:1013200030000000F81200086813000830000020A8
:10133000000800000813000800A24A040000000092
:101340000000000001020304060708090000000075
:101350000102030401020304060708090204060847
:08136000000000000000000085
:0400000508000131BD
:00000001FF
